{
  "contractName": "GlqStakingContract",
  "abi": [
    {
      "inputs": [
        {
          "internalType": "address",
          "name": "glqAddr",
          "type": "address"
        },
        {
          "internalType": "address",
          "name": "manager",
          "type": "address"
        }
      ],
      "stateMutability": "nonpayable",
      "type": "constructor"
    },
    {
      "anonymous": false,
      "inputs": [
        {
          "indexed": false,
          "internalType": "address",
          "name": "staker_address",
          "type": "address"
        },
        {
          "indexed": false,
          "internalType": "uint256",
          "name": "at_block",
          "type": "uint256"
        },
        {
          "indexed": false,
          "internalType": "uint256",
          "name": "amount_registered",
          "type": "uint256"
        }
      ],
      "name": "NewStakerRegistered",
      "type": "event"
    },
    {
      "inputs": [
        {
          "internalType": "address",
          "name": "wallet",
          "type": "address"
        }
      ],
      "name": "getWalletCurrentTier",
      "outputs": [
        {
          "internalType": "uint256",
          "name": "",
          "type": "uint256"
        }
      ],
      "stateMutability": "view",
      "type": "function",
      "constant": true
    },
    {
      "inputs": [
        {
          "internalType": "address",
          "name": "wallet",
          "type": "address"
        }
      ],
      "name": "getPosition",
      "outputs": [
        {
          "internalType": "uint256",
          "name": "",
          "type": "uint256"
        }
      ],
      "stateMutability": "view",
      "type": "function",
      "constant": true
    },
    {
      "inputs": [
        {
          "internalType": "address",
          "name": "wallet",
          "type": "address"
        }
      ],
      "name": "getGlqToClaim",
      "outputs": [
        {
          "internalType": "uint256",
          "name": "",
          "type": "uint256"
        }
      ],
      "stateMutability": "view",
      "type": "function",
      "constant": true
    },
    {
      "inputs": [
        {
          "internalType": "address",
          "name": "wallet",
          "type": "address"
        }
      ],
      "name": "getWaitingPercentAPR",
      "outputs": [
        {
          "internalType": "uint256",
          "name": "",
          "type": "uint256"
        }
      ],
      "stateMutability": "view",
      "type": "function",
      "constant": true
    },
    {
      "inputs": [],
      "name": "getTotalIncentive",
      "outputs": [
        {
          "internalType": "uint256",
          "name": "",
          "type": "uint256"
        }
      ],
      "stateMutability": "view",
      "type": "function",
      "constant": true
    },
    {
      "inputs": [
        {
          "internalType": "address",
          "name": "wallet",
          "type": "address"
        }
      ],
      "name": "getDepositedGLQ",
      "outputs": [
        {
          "internalType": "uint256",
          "name": "",
          "type": "uint256"
        }
      ],
      "stateMutability": "view",
      "type": "function",
      "constant": true
    },
    {
      "inputs": [],
      "name": "getTotalStakers",
      "outputs": [
        {
          "internalType": "uint256",
          "name": "",
          "type": "uint256"
        }
      ],
      "stateMutability": "view",
      "type": "function",
      "constant": true
    },
    {
      "inputs": [],
      "name": "getTiersAPY",
      "outputs": [
        {
          "internalType": "uint256",
          "name": "",
          "type": "uint256"
        },
        {
          "internalType": "uint256",
          "name": "",
          "type": "uint256"
        },
        {
          "internalType": "uint256",
          "name": "",
          "type": "uint256"
        }
      ],
      "stateMutability": "view",
      "type": "function",
      "constant": true
    },
    {
      "inputs": [],
      "name": "getTotalStaked",
      "outputs": [
        {
          "internalType": "uint256",
          "name": "",
          "type": "uint256"
        }
      ],
      "stateMutability": "view",
      "type": "function",
      "constant": true
    },
    {
      "inputs": [],
      "name": "getTopStakers",
      "outputs": [
        {
          "internalType": "address[]",
          "name": "",
          "type": "address[]"
        },
        {
          "internalType": "uint256[]",
          "name": "",
          "type": "uint256[]"
        }
      ],
      "stateMutability": "view",
      "type": "function",
      "constant": true
    },
    {
      "inputs": [
        {
          "internalType": "uint256",
          "name": "tier",
          "type": "uint256"
        }
      ],
      "name": "getTierTotalStaked",
      "outputs": [
        {
          "internalType": "uint256",
          "name": "",
          "type": "uint256"
        }
      ],
      "stateMutability": "view",
      "type": "function",
      "constant": true
    },
    {
      "inputs": [
        {
          "internalType": "bool",
          "name": "state",
          "type": "bool"
        }
      ],
      "name": "setEmergencyWithdraw",
      "outputs": [],
      "stateMutability": "nonpayable",
      "type": "function"
    },
    {
      "inputs": [
        {
          "internalType": "uint256",
          "name": "blocks",
          "type": "uint256"
        }
      ],
      "name": "setBlocksPerYear",
      "outputs": [],
      "stateMutability": "nonpayable",
      "type": "function"
    },
    {
      "inputs": [
        {
          "internalType": "uint256",
          "name": "t1",
          "type": "uint256"
        },
        {
          "internalType": "uint256",
          "name": "t2",
          "type": "uint256"
        },
        {
          "internalType": "uint256",
          "name": "t3",
          "type": "uint256"
        }
      ],
      "name": "setApyPercentRewards",
      "outputs": [],
      "stateMutability": "nonpayable",
      "type": "function"
    },
    {
      "inputs": [
        {
          "internalType": "uint256",
          "name": "glqAmount",
          "type": "uint256"
        }
      ],
      "name": "addIncentive",
      "outputs": [],
      "stateMutability": "nonpayable",
      "type": "function"
    },
    {
      "inputs": [
        {
          "internalType": "uint256",
          "name": "glqAmount",
          "type": "uint256"
        }
      ],
      "name": "removeIncentive",
      "outputs": [],
      "stateMutability": "nonpayable",
      "type": "function"
    },
    {
      "inputs": [
        {
          "internalType": "uint256",
          "name": "glqAmount",
          "type": "uint256"
        }
      ],
      "name": "depositGlq",
      "outputs": [],
      "stateMutability": "nonpayable",
      "type": "function"
    },
    {
      "inputs": [],
      "name": "emergencyWithdraw",
      "outputs": [],
      "stateMutability": "nonpayable",
      "type": "function"
    },
    {
      "inputs": [],
      "name": "withdrawGlq",
      "outputs": [],
      "stateMutability": "nonpayable",
      "type": "function"
    },
    {
      "inputs": [],
      "name": "claimGlq",
      "outputs": [
        {
          "internalType": "uint256",
          "name": "",
          "type": "uint256"
        }
      ],
      "stateMutability": "nonpayable",
      "type": "function"
    }
  ],
  "bytecode": "0x60806040523480156200001157600080fd5b5060405162003cde38038062003cde833981810160405281019062000037919062000147565b816000806101000a81548173ffffffffffffffffffffffffffffffffffffffff021916908373ffffffffffffffffffffffffffffffffffffffff16021790555080600160006101000a81548173ffffffffffffffffffffffffffffffffffffffff021916908373ffffffffffffffffffffffffffffffffffffffff160217905550600060058190555060016004819055506103e8600881905550604051806060016040528068015af1d78b58c40000815260200167ad78ebc5ac6200008152602001675a34a38fc00a000081525060096000820151816000015560208201518160010155604082015181600201559050505050620001d6565b6000815190506200014181620001bc565b92915050565b600080604083850312156200015b57600080fd5b60006200016b8582860162000130565b92505060206200017e8582860162000130565b9150509250929050565b600062000195826200019c565b9050919050565b600073ffffffffffffffffffffffffffffffffffffffff82169050919050565b620001c78162000188565b8114620001d357600080fd5b50565b613af880620001e66000396000f3fe608060405234801561001057600080fd5b506004361061012c5760003560e01c8063c7dd6f07116100ad578063db2e21bc11610071578063db2e21bc14610348578063e050b2e214610352578063e5fa2b701461035c578063ea26b02c14610378578063f2190dce146103945761012c565b8063c7dd6f07146102a2578063c88f4a95146102be578063d48e85b4146102de578063d6ed106f1461030e578063d7ba276b1461032a5761012c565b8063220e0726116100f4578063220e0726146101fb57806331ed0db41461021957806370bb9a251461023757806379e5917014610256578063b2f183a6146102725761012c565b806304e21762146101315780630917e7761461016157806310ae4e991461017f57806316c197391461019b57806319962aea146101cb575b600080fd5b61014b600480360381019061014691906129b5565b6103c4565b60405161015891906135d7565b60405180910390f35b610169610524565b60405161017691906135d7565b60405180910390f35b61019960048036038101906101949190612a82565b61052e565b005b6101b560048036038101906101b091906129b5565b610607565b6040516101c291906135d7565b60405180910390f35b6101e560048036038101906101e09190612a30565b610655565b6040516101f291906135d7565b60405180910390f35b6102036107b9565b60405161021091906135d7565b60405180910390f35b610221610abf565b60405161022e91906135d7565b60405180910390f35b61023f610acc565b60405161024d92919061335e565b60405180910390f35b610270600480360381019061026b9190612a30565b610d6a565b005b61028c600480360381019061028791906129b5565b610fdb565b60405161029991906135d7565b60405180910390f35b6102bc60048036038101906102b791906129de565b611094565b005b6102c6611141565b6040516102d5939291906135f2565b60405180910390f35b6102f860048036038101906102f391906129b5565b611163565b60405161030591906135d7565b60405180910390f35b61032860048036038101906103239190612a30565b6112fa565b005b61033261156d565b60405161033f91906135d7565b60405180910390f35b610350611577565b005b61035a6117f5565b005b61037660048036038101906103719190612a30565b611b5f565b005b610392600480360381019061038d9190612a30565b611bf9565b005b6103ae60048036038101906103a991906129b5565b61209f565b6040516103bb91906135d7565b60405180910390f35b600080600390506000600760008573ffffffffffffffffffffffffffffffffffffffff1673ffffffffffffffffffffffffffffffffffffffff1681526020019081526020016000205490506000811415610453576040517f08c379a000000000000000000000000000000000000000000000000000000000815260040161044a906135b7565b60405180910390fd5b6000610470670de0b6b3a7640000836121da90919063ffffffff16565b90506000610494670de0b6b3a76400006003805490506121da90919063ffffffff16565b905060006104bf600f6104b160648561225590919063ffffffff16565b6121da90919063ffffffff16565b905060006104ea60376104dc60648661225590919063ffffffff16565b6121da90919063ffffffff16565b90508184116104fc5760019550610516565b818411801561050b5750808411155b1561051557600295505b5b859650505050505050919050565b6000600554905090565b600160009054906101000a900473ffffffffffffffffffffffffffffffffffffffff1673ffffffffffffffffffffffffffffffffffffffff163373ffffffffffffffffffffffffffffffffffffffff16146105be576040517f08c379a00000000000000000000000000000000000000000000000000000000081526004016105b5906133f7565b60405180910390fd5b6000604051806060016040528085815260200184815260200183815250905080600960008201518160000155602082015181600101556040820151816002015590505050505050565b600080600760008473ffffffffffffffffffffffffffffffffffffffff1673ffffffffffffffffffffffffffffffffffffffff16815260200190815260200160002054905080915050919050565b60008060009050600061067e670de0b6b3a76400006003805490506121da90919063ffffffff16565b905060006106a9600f61069b60648561225590919063ffffffff16565b6121da90919063ffffffff16565b905060006106d460376106c660648661225590919063ffffffff16565b6121da90919063ffffffff16565b90506000600187146106e657826106e9565b60005b90506000600188146106fb57826106fd565b835b905060038814156107145782915060038054905090505b60008290505b818110801561072d575060038054905081105b156107aa5760036001826107419190613909565b81548110610778577f4e487b7100000000000000000000000000000000000000000000000000000000600052603260045260246000fd5b9060005260206000209060050201600201548761079591906136b7565b965080806107a2906139b8565b91505061071a565b50859650505050505050919050565b600080600760003373ffffffffffffffffffffffffffffffffffffffff1673ffffffffffffffffffffffffffffffffffffffff16815260200190815260200160002054905060008111610841576040517f08c379a000000000000000000000000000000000000000000000000000000000815260040161083890613477565b60405180910390fd5b600060036001836108529190613909565b81548110610889577f4e487b7100000000000000000000000000000000000000000000000000000000600052603260045260246000fd5b9060005260206000209060050201905060006108a43361209f565b905060008060009054906101000a900473ffffffffffffffffffffffffffffffffffffffff1690506000821161090f576040517f08c379a000000000000000000000000000000000000000000000000000000000815260040161090690613517565b60405180910390fd5b818173ffffffffffffffffffffffffffffffffffffffff166370a08231306040518263ffffffff1660e01b815260040161094991906132ac565b60206040518083038186803b15801561096157600080fd5b505afa158015610975573d6000803e3d6000fd5b505050506040513d601f19601f820116820180604052508101906109999190612a59565b116109d9576040517f08c379a00000000000000000000000000000000000000000000000000000000081526004016109d0906134b7565b60405180910390fd5b438360010181905550600115158173ffffffffffffffffffffffffffffffffffffffff1663a9059cbb33856040518363ffffffff1660e01b8152600401610a219291906132fe565b602060405180830381600087803b158015610a3b57600080fd5b505af1158015610a4f573d6000803e3d6000fd5b505050506040513d601f19601f82011682018060405250810190610a739190612a07565b151514610ab5576040517f08c379a0000000000000000000000000000000000000000000000000000000008152600401610aac90613577565b60405180910390fd5b8194505050505090565b6000600380549050905090565b606080600060038054905090506000600367ffffffffffffffff811115610b1c577f4e487b7100000000000000000000000000000000000000000000000000000000600052604160045260246000fd5b604051908082528060200260200182016040528015610b4a5781602001602082028036833780820191505090505b5090506000600367ffffffffffffffff811115610b90577f4e487b7100000000000000000000000000000000000000000000000000000000600052604160045260246000fd5b604051908082528060200260200182016040528015610bbe5781602001602082028036833780820191505090505b50905060005b8381108015610bd4575060028111155b15610d5c5760038181548110610c13577f4e487b7100000000000000000000000000000000000000000000000000000000600052603260045260246000fd5b906000526020600020906005020160000160009054906101000a900473ffffffffffffffffffffffffffffffffffffffff16838281518110610c7e577f4e487b7100000000000000000000000000000000000000000000000000000000600052603260045260246000fd5b602002602001019073ffffffffffffffffffffffffffffffffffffffff16908173ffffffffffffffffffffffffffffffffffffffff168152505060038181548110610cf2577f4e487b7100000000000000000000000000000000000000000000000000000000600052603260045260246000fd5b906000526020600020906005020160020154828281518110610d3d577f4e487b7100000000000000000000000000000000000000000000000000000000600052603260045260246000fd5b6020026020010181815250508080610d54906139b8565b915050610bc4565b508181945094505050509091565b60008060009054906101000a900473ffffffffffffffffffffffffffffffffffffffff169050600160009054906101000a900473ffffffffffffffffffffffffffffffffffffffff1673ffffffffffffffffffffffffffffffffffffffff163373ffffffffffffffffffffffffffffffffffffffff1614610e20576040517f08c379a0000000000000000000000000000000000000000000000000000000008152600401610e1790613497565b60405180910390fd5b818173ffffffffffffffffffffffffffffffffffffffff166370a08231306040518263ffffffff1660e01b8152600401610e5a91906132ac565b60206040518083038186803b158015610e7257600080fd5b505afa158015610e86573d6000803e3d6000fd5b505050506040513d601f19601f82011682018060405250810190610eaa9190612a59565b1015610eeb576040517f08c379a0000000000000000000000000000000000000000000000000000000008152600401610ee2906134f7565b60405180910390fd5b600115158173ffffffffffffffffffffffffffffffffffffffff1663a9059cbb33856040518363ffffffff1660e01b8152600401610f2a9291906132fe565b602060405180830381600087803b158015610f4457600080fd5b505af1158015610f58573d6000803e3d6000fd5b505050506040513d601f19601f82011682018060405250810190610f7c9190612a07565b151514610fbe576040517f08c379a0000000000000000000000000000000000000000000000000000000008152600401610fb590613577565b60405180910390fd5b8160026000828254610fd09190613909565b925050819055505050565b600080600760008473ffffffffffffffffffffffffffffffffffffffff1673ffffffffffffffffffffffffffffffffffffffff168152602001908152602001600020549050600081141561103357600091505061108f565b60036001826110429190613909565b81548110611079577f4e487b7100000000000000000000000000000000000000000000000000000000600052603260045260246000fd5b9060005260206000209060050201600201549150505b919050565b600160009054906101000a900473ffffffffffffffffffffffffffffffffffffffff1673ffffffffffffffffffffffffffffffffffffffff163373ffffffffffffffffffffffffffffffffffffffff1614611124576040517f08c379a000000000000000000000000000000000000000000000000000000000815260040161111b90613597565b60405180910390fd5b80600660006101000a81548160ff02191690831515021790555050565b6000806000600960000154600960010154600960020154925092509250909192565b600080600760008473ffffffffffffffffffffffffffffffffffffffff1673ffffffffffffffffffffffffffffffffffffffff168152602001908152602001600020549050600081116111eb576040517f08c379a00000000000000000000000000000000000000000000000000000000081526004016111e290613477565b60405180910390fd5b600060036001836111fc9190613909565b81548110611233577f4e487b7100000000000000000000000000000000000000000000000000000000600052603260045260246000fd5b90600052602060002090600502019050600061124e336103c4565b9050600061126983600101544361229f90919063ffffffff16565b905060008114156112815760009450505050506112f5565b60006112918260085460026122e9565b90506000600960020154905060018414156112b35760096000015490506112c6565b60028414156112c55760096001015490505b5b6112ec60646112de84846121da90919063ffffffff16565b61225590919063ffffffff16565b96505050505050505b919050565b60008060009054906101000a900473ffffffffffffffffffffffffffffffffffffffff169050600160009054906101000a900473ffffffffffffffffffffffffffffffffffffffff1673ffffffffffffffffffffffffffffffffffffffff163373ffffffffffffffffffffffffffffffffffffffff16146113b0576040517f08c379a00000000000000000000000000000000000000000000000000000000081526004016113a790613557565b60405180910390fd5b818173ffffffffffffffffffffffffffffffffffffffff166370a08231336040518263ffffffff1660e01b81526004016113ea91906132ac565b60206040518083038186803b15801561140257600080fd5b505afa158015611416573d6000803e3d6000fd5b505050506040513d601f19601f8201168201806040525081019061143a9190612a59565b101561147b576040517f08c379a0000000000000000000000000000000000000000000000000000000008152600401611472906134f7565b60405180910390fd5b600115158173ffffffffffffffffffffffffffffffffffffffff166323b872dd3330866040518463ffffffff1660e01b81526004016114bc939291906132c7565b602060405180830381600087803b1580156114d657600080fd5b505af11580156114ea573d6000803e3d6000fd5b505050506040513d601f19601f8201168201806040525081019061150e9190612a07565b151514611550576040517f08c379a0000000000000000000000000000000000000000000000000000000008152600401611547906133b7565b60405180910390fd5b816002600082825461156291906136b7565b925050819055505050565b6000600254905090565b60011515600660009054906101000a900460ff161515146115cd576040517f08c379a00000000000000000000000000000000000000000000000000000000081526004016115c490613437565b60405180910390fd5b6000600760003373ffffffffffffffffffffffffffffffffffffffff1673ffffffffffffffffffffffffffffffffffffffff16815260200190815260200160002054905060008111611654576040517f08c379a000000000000000000000000000000000000000000000000000000000815260040161164b90613477565b60405180910390fd5b600060036001836116659190613909565b8154811061169c577f4e487b7100000000000000000000000000000000000000000000000000000000600052603260045260246000fd5b9060005260206000209060050201905060008060009054906101000a900473ffffffffffffffffffffffffffffffffffffffff1690506000826002015411611719576040517f08c379a0000000000000000000000000000000000000000000000000000000008152600401611710906133d7565b60405180910390fd5b600115158173ffffffffffffffffffffffffffffffffffffffff1663a9059cbb3385600201546040518363ffffffff1660e01b815260040161175c9291906132fe565b602060405180830381600087803b15801561177657600080fd5b505af115801561178a573d6000803e3d6000fd5b505050506040513d601f19601f820116820180604052508101906117ae9190612a07565b1515146117f0576040517f08c379a00000000000000000000000000000000000000000000000000000000081526004016117e790613577565b60405180910390fd5b505050565b6000600760003373ffffffffffffffffffffffffffffffffffffffff1673ffffffffffffffffffffffffffffffffffffffff1681526020019081526020016000205490506000811161187c576040517f08c379a000000000000000000000000000000000000000000000000000000000815260040161187390613477565b60405180910390fd5b6000600360018361188d9190613909565b815481106118c4577f4e487b7100000000000000000000000000000000000000000000000000000000600052603260045260246000fd5b9060005260206000209060050201905060008060009054906101000a900473ffffffffffffffffffffffffffffffffffffffff1690506000826002015411611941576040517f08c379a0000000000000000000000000000000000000000000000000000000008152600401611938906133d7565b60405180910390fd5b6119496107b9565b508160020154600560008282546119609190613909565b9250508190555081600201548173ffffffffffffffffffffffffffffffffffffffff166370a08231306040518263ffffffff1660e01b81526004016119a591906132ac565b60206040518083038186803b1580156119bd57600080fd5b505afa1580156119d1573d6000803e3d6000fd5b505050506040513d601f19601f820116820180604052508101906119f59190612a59565b1015611a36576040517f08c379a0000000000000000000000000000000000000000000000000000000008152600401611a2d906134f7565b60405180910390fd5b600115158173ffffffffffffffffffffffffffffffffffffffff1663a9059cbb3385600201546040518363ffffffff1660e01b8152600401611a799291906132fe565b602060405180830381600087803b158015611a9357600080fd5b505af1158015611aa7573d6000803e3d6000fd5b505050506040513d601f19601f82011682018060405250810190611acb9190612a07565b151514611b0d576040517f08c379a0000000000000000000000000000000000000000000000000000000008152600401611b0490613577565b60405180910390fd5b600082600201819055508160040160009054906101000a900460ff1615611b3c57611b3782612346565b611b5a565b60018260040160006101000a81548160ff0219169083151502179055505b505050565b600160009054906101000a900473ffffffffffffffffffffffffffffffffffffffff1673ffffffffffffffffffffffffffffffffffffffff163373ffffffffffffffffffffffffffffffffffffffff1614611bef576040517f08c379a0000000000000000000000000000000000000000000000000000000008152600401611be6906134d7565b60405180910390fd5b8060088190555050565b60008060009054906101000a900473ffffffffffffffffffffffffffffffffffffffff169050818173ffffffffffffffffffffffffffffffffffffffff166370a08231336040518263ffffffff1660e01b8152600401611c5991906132ac565b60206040518083038186803b158015611c7157600080fd5b505afa158015611c85573d6000803e3d6000fd5b505050506040513d601f19601f82011682018060405250810190611ca99190612a59565b1015611cea576040517f08c379a0000000000000000000000000000000000000000000000000000000008152600401611ce190613457565b60405180910390fd5b600115158173ffffffffffffffffffffffffffffffffffffffff166323b872dd3330866040518463ffffffff1660e01b8152600401611d2b939291906132c7565b602060405180830381600087803b158015611d4557600080fd5b505af1158015611d59573d6000803e3d6000fd5b505050506040513d601f19601f82011682018060405250810190611d7d9190612a07565b151514611dbf576040517f08c379a0000000000000000000000000000000000000000000000000000000008152600401611db6906133b7565b60405180910390fd5b6000600760003373ffffffffffffffffffffffffffffffffffffffff1673ffffffffffffffffffffffffffffffffffffffff1681526020019081526020016000205490508260056000828254611e1591906136b7565b925050819055506000811415611fc15760006040518060a001604052803373ffffffffffffffffffffffffffffffffffffffff1681526020014381526020018581526020016004548152602001600015158152509050600381908060018154018082558091505060019003906000526020600020906005020160009091909190915060008201518160000160006101000a81548173ffffffffffffffffffffffffffffffffffffffff021916908373ffffffffffffffffffffffffffffffffffffffff16021790555060208201518160010155604082015181600201556060820151816003015560808201518160040160006101000a81548160ff0219169083151502179055505050600454600760003373ffffffffffffffffffffffffffffffffffffffff1673ffffffffffffffffffffffffffffffffffffffff168152602001908152602001600020819055507fc47ed82c58c2e577a99ebba100d4a14c287e3b453c8d46113417f41f9f283d11334386604051611f9793929190613327565b60405180910390a1611fb5600160045461282790919063ffffffff16565b6004819055505061209a565b60006003600183611fd29190613909565b81548110612009577f4e487b7100000000000000000000000000000000000000000000000000000000600052603260045260246000fd5b906000526020600020906005020160020154111561202b576120296107b9565b505b82600360018361203b9190613909565b81548110612072577f4e487b7100000000000000000000000000000000000000000000000000000000600052603260045260246000fd5b9060005260206000209060050201600201600082825461209291906136b7565b925050819055505b505050565b600080600760008473ffffffffffffffffffffffffffffffffffffffff1673ffffffffffffffffffffffffffffffffffffffff16815260200190815260200160002054905060008111612127576040517f08c379a000000000000000000000000000000000000000000000000000000000815260040161211e90613477565b60405180910390fd5b600060036001836121389190613909565b8154811061216f577f4e487b7100000000000000000000000000000000000000000000000000000000600052603260045260246000fd5b90600052602060002090600502019050600061218a85611163565b90506121d06127106121c26121af662386f26fc100008561225590919063ffffffff16565b85600201546121da90919063ffffffff16565b61225590919063ffffffff16565b9350505050919050565b6000808314156121ed576000905061224f565b600082846121fb91906138af565b905082848261220a919061370d565b1461224a576040517f08c379a000000000000000000000000000000000000000000000000000000000815260040161224190613537565b60405180910390fd5b809150505b92915050565b600061229783836040518060400160405280601a81526020017f536166654d6174683a206469766973696f6e206279207a65726f000000000000815250612885565b905092915050565b60006122e183836040518060400160405280601e81526020017f536166654d6174683a207375627472616374696f6e206f766572666c6f7700008152506128e8565b905092915050565b6000806001836122f991906136b7565b600a6123059190613791565b8561231091906138af565b90506000600a60058684612324919061370d565b61232e91906136b7565b612338919061370d565b905080925050509392505050565b60006001600760008460000160009054906101000a900473ffffffffffffffffffffffffffffffffffffffff1673ffffffffffffffffffffffffffffffffffffffff1673ffffffffffffffffffffffffffffffffffffffff168152602001908152602001600020546123b89190613909565b90506000600760008460000160009054906101000a900473ffffffffffffffffffffffffffffffffffffffff1673ffffffffffffffffffffffffffffffffffffffff1673ffffffffffffffffffffffffffffffffffffffff1681526020019081526020016000208190555060008190505b600160038054905061243b9190613909565b81101561274e57600360018261245191906136b7565b81548110612488577f4e487b7100000000000000000000000000000000000000000000000000000000600052603260045260246000fd5b9060005260206000209060050201600382815481106124d0577f4e487b7100000000000000000000000000000000000000000000000000000000600052603260045260246000fd5b90600052602060002090600502016000820160009054906101000a900473ffffffffffffffffffffffffffffffffffffffff168160000160006101000a81548173ffffffffffffffffffffffffffffffffffffffff021916908373ffffffffffffffffffffffffffffffffffffffff1602179055506001820154816001015560028201548160020155600382015481600301556004820160009054906101000a900460ff168160040160006101000a81548160ff0219169083151502179055509050506125f26001600383815481106125d2577f4e487b7100000000000000000000000000000000000000000000000000000000600052603260045260246000fd5b90600052602060002090600502016003015461229f90919063ffffffff16565b6003828154811061262c577f4e487b7100000000000000000000000000000000000000000000000000000000600052603260045260246000fd5b9060005260206000209060050201600301819055506003818154811061267b577f4e487b7100000000000000000000000000000000000000000000000000000000600052603260045260246000fd5b90600052602060002090600502016003015460076000600384815481106126cb577f4e487b7100000000000000000000000000000000000000000000000000000000600052603260045260246000fd5b906000526020600020906005020160000160009054906101000a900473ffffffffffffffffffffffffffffffffffffffff1673ffffffffffffffffffffffffffffffffffffffff1673ffffffffffffffffffffffffffffffffffffffff168152602001908152602001600020819055508080612746906139b8565b915050612429565b506003805480612787577f4e487b7100000000000000000000000000000000000000000000000000000000600052603160045260246000fd5b6001900381819060005260206000209060050201600080820160006101000a81549073ffffffffffffffffffffffffffffffffffffffff02191690556001820160009055600282016000905560038201600090556004820160006101000a81549060ff021916905550509055612809600160045461229f90919063ffffffff16565b600481905550600060045414156128235760016004819055505b5050565b600080828461283691906136b7565b90508381101561287b576040517f08c379a000000000000000000000000000000000000000000000000000000000815260040161287290613417565b60405180910390fd5b8091505092915050565b600080831182906128cc576040517f08c379a00000000000000000000000000000000000000000000000000000000081526004016128c39190613395565b60405180910390fd5b50600083856128db919061370d565b9050809150509392505050565b6000838311158290612930576040517f08c379a00000000000000000000000000000000000000000000000000000000081526004016129279190613395565b60405180910390fd5b506000838561293f9190613909565b9050809150509392505050565b60008135905061295b81613a7d565b92915050565b60008135905061297081613a94565b92915050565b60008151905061298581613a94565b92915050565b60008135905061299a81613aab565b92915050565b6000815190506129af81613aab565b92915050565b6000602082840312156129c757600080fd5b60006129d58482850161294c565b91505092915050565b6000602082840312156129f057600080fd5b60006129fe84828501612961565b91505092915050565b600060208284031215612a1957600080fd5b6000612a2784828501612976565b91505092915050565b600060208284031215612a4257600080fd5b6000612a508482850161298b565b91505092915050565b600060208284031215612a6b57600080fd5b6000612a79848285016129a0565b91505092915050565b600080600060608486031215612a9757600080fd5b6000612aa58682870161298b565b9350506020612ab68682870161298b565b9250506040612ac78682870161298b565b9150509250925092565b6000612add8383612b01565b60208301905092915050565b6000612af5838361328e565b60208301905092915050565b612b0a8161393d565b82525050565b612b198161393d565b82525050565b6000612b2a82613649565b612b348185613684565b9350612b3f83613629565b8060005b83811015612b70578151612b578882612ad1565b9750612b628361366a565b925050600181019050612b43565b5085935050505092915050565b6000612b8882613654565b612b928185613695565b9350612b9d83613639565b8060005b83811015612bce578151612bb58882612ae9565b9750612bc083613677565b925050600181019050612ba1565b5085935050505092915050565b6000612be68261365f565b612bf081856136a6565b9350612c00818560208601613985565b612c0981613a5f565b840191505092915050565b6000612c216022836136a6565b91507f4572726f72207472616e7366657246726f6d206f6e2074686520636f6e74726160008301527f63740000000000000000000000000000000000000000000000000000000000006020830152604082019050919050565b6000612c87602b836136a6565b91507f4e6f742066756e6473206465706f736974656420696e20746865207374616b6960008301527f6e6720636f6e74726163740000000000000000000000000000000000000000006020830152604082019050919050565b6000612ced6025836136a6565b91507f4f6e6c792074686520476c71204465706c6f7965722063616e2041505920726560008301527f77617264730000000000000000000000000000000000000000000000000000006020830152604082019050919050565b6000612d53601b836136a6565b91507f536166654d6174683a206164646974696f6e206f766572666c6f7700000000006000830152602082019050919050565b6000612d93602d836136a6565b91507f54686520656d657267656e63792077697468647261772066656174757265206960008301527f73206e6f7420656e61626c6564000000000000000000000000000000000000006020830152604082019050919050565b6000612df96022836136a6565b91507f496e73756666696369656e742066756e64732066726f6d207468652073656e6460008301527f65720000000000000000000000000000000000000000000000000000000000006020830152604082019050919050565b6000612e5f6015836136a6565b91507f496e76616c6964207374616b696e6720696e64657800000000000000000000006000830152602082019050919050565b6000612e9f6042836136a6565b91507f4f6e6c792074686520476c71204465706c6f7965722063616e2072656d6f766560008301527f20696e63656e746976652066726f6d2074686520736d6172742d636f6e74726160208301527f63740000000000000000000000000000000000000000000000000000000000006040830152606082019050919050565b6000612f2b6038836136a6565b91507f4e6f7420656e6f7567682066756e647320696e20746865207374616b696e672060008301527f70726f6772616d20746f20636c61696d207265776172647300000000000000006020830152604082019050919050565b6000612f916036836136a6565b91507f4f6e6c792074686520476c71204465706c6f7965722063616e206368616e676560008301527f20626c6f636b73207370656e74207065722079656172000000000000000000006020830152604082019050919050565b6000612ff7602d836136a6565b91507f496e73756666696369656e742066756e64732066726f6d20746865206465706c60008301527f6f79657220636f6e7472616374000000000000000000000000000000000000006020830152604082019050919050565b600061305d6014836136a6565b91507f4e6f207265776172647320746f20636c61696d2e0000000000000000000000006000830152602082019050919050565b600061309d6021836136a6565b91507f536166654d6174683a206d756c7469706c69636174696f6e206f766572666c6f60008301527f77000000000000000000000000000000000000000000000000000000000000006020830152604082019050919050565b6000613103603f836136a6565b91507f4f6e6c792074686520476c71204465706c6f7965722063616e2061646420696e60008301527f63656e7469766520696e746f2074686520736d6172742d636f6e7472616374006020830152604082019050919050565b6000613169601e836136a6565b91507f4572726f72207472616e73666572206f6e2074686520636f6e747261637400006000830152602082019050919050565b60006131a96044836136a6565b91507f4f6e6c792074686520476c71204465706c6f7965722063616e206368616e676560008301527f20746865207374617465206f662074686520656d657267656e6379207769746860208301527f64726177000000000000000000000000000000000000000000000000000000006040830152606082019050919050565b6000613235603e836136a6565b91507f596f7520646f6e74206861766520616e7920746965722072616e6b206375727260008301527f656e746c7920696e20746865205374616b696e6720636f6e74726163742e00006020830152604082019050919050565b6132978161397b565b82525050565b6132a68161397b565b82525050565b60006020820190506132c16000830184612b10565b92915050565b60006060820190506132dc6000830186612b10565b6132e96020830185612b10565b6132f6604083018461329d565b949350505050565b60006040820190506133136000830185612b10565b613320602083018461329d565b9392505050565b600060608201905061333c6000830186612b10565b613349602083018561329d565b613356604083018461329d565b949350505050565b600060408201905081810360008301526133788185612b1f565b9050818103602083015261338c8184612b7d565b90509392505050565b600060208201905081810360008301526133af8184612bdb565b905092915050565b600060208201905081810360008301526133d081612c14565b9050919050565b600060208201905081810360008301526133f081612c7a565b9050919050565b6000602082019050818103600083015261341081612ce0565b9050919050565b6000602082019050818103600083015261343081612d46565b9050919050565b6000602082019050818103600083015261345081612d86565b9050919050565b6000602082019050818103600083015261347081612dec565b9050919050565b6000602082019050818103600083015261349081612e52565b9050919050565b600060208201905081810360008301526134b081612e92565b9050919050565b600060208201905081810360008301526134d081612f1e565b9050919050565b600060208201905081810360008301526134f081612f84565b9050919050565b6000602082019050818103600083015261351081612fea565b9050919050565b6000602082019050818103600083015261353081613050565b9050919050565b6000602082019050818103600083015261355081613090565b9050919050565b60006020820190508181036000830152613570816130f6565b9050919050565b600060208201905081810360008301526135908161315c565b9050919050565b600060208201905081810360008301526135b08161319c565b9050919050565b600060208201905081810360008301526135d081613228565b9050919050565b60006020820190506135ec600083018461329d565b92915050565b6000606082019050613607600083018661329d565b613614602083018561329d565b613621604083018461329d565b949350505050565b6000819050602082019050919050565b6000819050602082019050919050565b600081519050919050565b600081519050919050565b600081519050919050565b6000602082019050919050565b6000602082019050919050565b600082825260208201905092915050565b600082825260208201905092915050565b600082825260208201905092915050565b60006136c28261397b565b91506136cd8361397b565b9250827fffffffffffffffffffffffffffffffffffffffffffffffffffffffffffffffff0382111561370257613701613a01565b5b828201905092915050565b60006137188261397b565b91506137238361397b565b92508261373357613732613a30565b5b828204905092915050565b6000808291508390505b60018511156137885780860481111561376457613763613a01565b5b60018516156137735780820291505b808102905061378185613a70565b9450613748565b94509492505050565b600061379c8261397b565b91506137a78361397b565b92506137d47fffffffffffffffffffffffffffffffffffffffffffffffffffffffffffffffff84846137dc565b905092915050565b6000826137ec57600190506138a8565b816137fa57600090506138a8565b8160018114613810576002811461381a57613849565b60019150506138a8565b60ff84111561382c5761382b613a01565b5b8360020a91508482111561384357613842613a01565b5b506138a8565b5060208310610133831016604e8410600b841016171561387e5782820a90508381111561387957613878613a01565b5b6138a8565b61388b848484600161373e565b925090508184048111156138a2576138a1613a01565b5b81810290505b9392505050565b60006138ba8261397b565b91506138c58361397b565b9250817fffffffffffffffffffffffffffffffffffffffffffffffffffffffffffffffff04831182151516156138fe576138fd613a01565b5b828202905092915050565b60006139148261397b565b915061391f8361397b565b92508282101561393257613931613a01565b5b828203905092915050565b60006139488261395b565b9050919050565b60008115159050919050565b600073ffffffffffffffffffffffffffffffffffffffff82169050919050565b6000819050919050565b60005b838110156139a3578082015181840152602081019050613988565b838111156139b2576000848401525b50505050565b60006139c38261397b565b91507fffffffffffffffffffffffffffffffffffffffffffffffffffffffffffffffff8214156139f6576139f5613a01565b5b600182019050919050565b7f4e487b7100000000000000000000000000000000000000000000000000000000600052601160045260246000fd5b7f4e487b7100000000000000000000000000000000000000000000000000000000600052601260045260246000fd5b6000601f19601f8301169050919050565b60008160011c9050919050565b613a868161393d565b8114613a9157600080fd5b50565b613a9d8161394f565b8114613aa857600080fd5b50565b613ab48161397b565b8114613abf57600080fd5b5056fea26469706673582212203f9bb0781686f8f340b072cdc023b0f1643d635241f281db0d6cbdaaac72c83264736f6c63430008000033",
  "immutableReferences": {},
  "source": "// SPDX-License-Identifier: MIT\r\n\r\npragma solidity ^0.8.0;\r\n\r\nimport \"./libs/maths/SafeMath.sol\";\r\nimport \"./libs/string.sol\";\r\nimport \"./interfaces/IERC20.sol\";\r\nimport \"./libs/sort.sol\";\r\n\r\nstruct GlqStaker {\r\n    address wallet;\r\n    uint256 block_number;\r\n    uint256 amount;\r\n    uint256 index_at;\r\n    bool already_withdrawn;\r\n}\r\n\r\nstruct GraphLinqApyStruct {\r\n    uint256 tier1Apy;\r\n    uint256 tier2Apy;\r\n    uint256 tier3Apy;      \r\n}\r\n\r\ncontract GlqStakingContract {\r\n\r\n    using SafeMath for uint256;\r\n    using strings for *;\r\n    using QuickSorter for *;\r\n\r\n    event NewStakerRegistered (\r\n        address staker_address,\r\n        uint256 at_block,\r\n        uint256 amount_registered\r\n    );\r\n\r\n    /*\r\n    ** Address of the GLQ token hash: 0x9F9c8ec3534c3cE16F928381372BfbFBFb9F4D24\r\n    */\r\n    address private _glqTokenAddress;\r\n\r\n    /*\r\n    ** Manager of the contract to add/remove APYs bonuses into the staking contract\r\n    */\r\n    address private _glqDeployerManager;\r\n\r\n    /*\r\n    ** Current amount of GLQ available in the pool as rewards\r\n    */\r\n    uint256 private _totalGlqIncentive;\r\n\r\n    GlqStaker[]                     private _stakers;\r\n    uint256                         private _stakersIndex;\r\n    uint256                         private _totalStaked;\r\n    bool                            private _emergencyWithdraw;\r\n\r\n    mapping(address => uint256)     private _indexStaker;\r\n    uint256                         private _blocksPerYear;\r\n    GraphLinqApyStruct              private _apyStruct;\r\n\r\n    constructor(address glqAddr, address manager) {\r\n        _glqTokenAddress = glqAddr;\r\n        _glqDeployerManager = manager;\r\n\r\n        _totalStaked = 0;\r\n        _stakersIndex = 1;\r\n        \r\n        //_blocksPerYear = 2250000;\r\n        _blocksPerYear = 1000;\r\n        \r\n        // default t1: 25%, t2: 12.5%, t3: 6.5%\r\n        _apyStruct = GraphLinqApyStruct(25*1e18, 12500000000000000000, 6500000000000000000);\r\n    }\r\n\r\n\r\n    /* Getter ---- Read-Only */\r\n\r\n    /*\r\n    ** Return the sender wallet position from the tier system\r\n    */\r\n    function getWalletCurrentTier(address wallet) public view returns (uint256) {\r\n        uint256 currentTier = 3;\r\n        uint256 index = _indexStaker[wallet];\r\n        require(\r\n            index != 0,\r\n            \"You dont have any tier rank currently in the Staking contract.\"\r\n        );\r\n        uint256 walletAggregatedIndex = (index).mul(1e18);\r\n\r\n        // Total length of stakers\r\n        uint256 totalIndex = _stakers.length.mul(1e18);\r\n        // 15% of hodlers in T1 \r\n        uint256 t1MaxIndex = totalIndex.div(100).mul(15);        \r\n        // 55% of hodlers in T2\r\n        uint256 t2MaxIndex = totalIndex.div(100).mul(55);\r\n\r\n        if (walletAggregatedIndex <= t1MaxIndex) {\r\n            currentTier = 1;\r\n        } else if (walletAggregatedIndex > t1MaxIndex && walletAggregatedIndex <= t2MaxIndex) {\r\n            currentTier = 2;\r\n        }\r\n\r\n        return currentTier;\r\n    }\r\n\r\n    /*\r\n    ** Return rank position of a wallet\r\n    */\r\n    function getPosition(address wallet) public view returns (uint256) {\r\n         uint256 index = _indexStaker[wallet];\r\n         return index;\r\n    }\r\n\r\n    /*\r\n    ** Return the amount of GLQ that a wallet can currently claim from the staking contract\r\n    */\r\n    function getGlqToClaim(address wallet) public view returns(uint256) {\r\n        uint256 index = _indexStaker[wallet];\r\n        require (index > 0, \"Invalid staking index\");\r\n        GlqStaker storage staker = _stakers[index - 1];\r\n\r\n        uint256 calculatedApr = getWaitingPercentAPR(wallet);\r\n        return staker.amount.mul(calculatedApr.div(1e16)).div(10000);\r\n    }\r\n\r\n    /*\r\n    ** Return the current percent winnable for a staker wallet\r\n    */\r\n    function getWaitingPercentAPR(address wallet) public view returns(uint256) {\r\n        uint256 index = _indexStaker[wallet];\r\n        require (index > 0, \"Invalid staking index\");\r\n        GlqStaker storage staker = _stakers[index - 1];\r\n\r\n        uint256 walletTier = getWalletCurrentTier(msg.sender);\r\n        uint256 blocksSpent = block.number.sub(staker.block_number);\r\n        if (blocksSpent == 0) { return 0; }\r\n        uint256 percentYearSpent = percent(blocksSpent, _blocksPerYear, 2);\r\n\r\n        uint256 percentAprGlq = _apyStruct.tier3Apy;\r\n        if (walletTier == 1) {\r\n            percentAprGlq = _apyStruct.tier1Apy;\r\n        } else if (walletTier == 2) { \r\n            percentAprGlq = _apyStruct.tier2Apy;\r\n        }\r\n\r\n        return percentAprGlq.mul(percentYearSpent).div(100);\r\n    }\r\n\r\n    /*\r\n    ** Return the total amount of GLQ as incentive rewards in the contract\r\n    */\r\n    function getTotalIncentive() public view returns (uint256) {\r\n        return _totalGlqIncentive;\r\n    }\r\n\r\n    /*\r\n    ** Return the total amount in staking for an hodler.\r\n    */\r\n    function getDepositedGLQ(address wallet) public view returns (uint256) {\r\n        uint256 index = _indexStaker[wallet];\r\n        if (index == 0) { return 0; }\r\n        return _stakers[index-1].amount;\r\n    }\r\n\r\n    /*\r\n    ** Count the total numbers of stakers in the contract\r\n    */\r\n    function getTotalStakers() public view returns(uint256) {\r\n        return _stakers.length;\r\n    }\r\n\r\n    /*\r\n    ** Return all APY per different Tier\r\n    */\r\n    function getTiersAPY() public view returns(uint256, uint256, uint256) {\r\n        return (_apyStruct.tier1Apy, _apyStruct.tier2Apy, _apyStruct.tier3Apy);\r\n    }\r\n\r\n    /*\r\n    ** Return the Total staked amount\r\n    */\r\n    function getTotalStaked() public view returns(uint256) {\r\n        return _totalStaked;\r\n    }\r\n\r\n    /*\r\n    ** Return the top 3 of stakers (by age)\r\n    */\r\n    function getTopStakers() public view returns(address[] memory, uint256[] memory) {\r\n        uint256 len = _stakers.length;\r\n        address[] memory addresses = new address[](3);\r\n        uint256[] memory amounts = new uint256[](3);\r\n\r\n        for (uint i = 0; i < len && i <= 2; i++) {\r\n            addresses[i] = _stakers[i].wallet;\r\n            amounts[i] = _stakers[i].amount;\r\n        }\r\n\r\n        return (addresses, amounts);\r\n    }\r\n\r\n    /*\r\n    ** Return the sender wallet position from the tier system\r\n    */\r\n    function getTierTotalStaked(uint tier) public view returns (uint256) {\r\n        uint256 totalAmount = 0;\r\n\r\n        // Total length of stakers\r\n        uint256 totalIndex = _stakers.length.mul(1e18);\r\n        // 15% of hodlers in T1 \r\n        uint256 t1MaxIndex = totalIndex.div(100).mul(15);\r\n        // 55% of hodlers in T2\r\n        uint256 t2MaxIndex = totalIndex.div(100).mul(55);\r\n\r\n        uint startIndex = (tier == 1) ? 0 : t1MaxIndex;\r\n        uint endIndex = (tier == 1) ? t1MaxIndex : t2MaxIndex;\r\n        \r\n        if (tier == 3) {\r\n            startIndex = t2MaxIndex;\r\n            endIndex = _stakers.length;\r\n        }\r\n\r\n        for (uint i = startIndex; i < endIndex && i < _stakers.length; i++) {\r\n            totalAmount +=  _stakers[i -1].amount;\r\n        }\r\n      \r\n        return totalAmount;\r\n    }\r\n\r\n    /* Getter ---- Read-Only */\r\n\r\n\r\n    /* Setter - Read & Modifications */\r\n\r\n\r\n    /*\r\n    ** Enable emergency withdraw by GLQ Deployer\r\n    */\r\n    function setEmergencyWithdraw(bool state) public {\r\n        require (\r\n            msg.sender == _glqDeployerManager,\r\n            \"Only the Glq Deployer can change the state of the emergency withdraw\"\r\n        );\r\n        _emergencyWithdraw = state;\r\n    }\r\n\r\n    /*\r\n    ** Set numbers of blocks spent per year to calculate claim rewards\r\n    */\r\n    function setBlocksPerYear(uint256 blocks) public {\r\n        require(\r\n            msg.sender == _glqDeployerManager,\r\n            \"Only the Glq Deployer can change blocks spent per year\");\r\n        _blocksPerYear = blocks;\r\n    }\r\n\r\n    /*\r\n    ** Update the APY rewards for each tier in percent per year\r\n    */\r\n    function setApyPercentRewards(uint256 t1, uint256 t2, uint256 t3) public {\r\n        require(\r\n            msg.sender == _glqDeployerManager,\r\n            \"Only the Glq Deployer can APY rewards\");\r\n        GraphLinqApyStruct memory newApy = GraphLinqApyStruct(t1, t2, t3);\r\n        _apyStruct = newApy;\r\n    }\r\n\r\n    /*\r\n    ** Add GLQ liquidity in the staking contract for stakers rewards \r\n    */\r\n    function addIncentive(uint256 glqAmount) public {\r\n        IERC20 glqToken = IERC20(_glqTokenAddress);\r\n        require(\r\n            msg.sender == _glqDeployerManager,\r\n            \"Only the Glq Deployer can add incentive into the smart-contract\");\r\n        require(\r\n            glqToken.balanceOf(msg.sender) >= glqAmount,\r\n            \"Insufficient funds from the deployer contract\");\r\n        require(\r\n            glqToken.transferFrom(msg.sender, address(this), glqAmount) == true,\r\n            \"Error transferFrom on the contract\"\r\n        );\r\n        _totalGlqIncentive += glqAmount;\r\n    }\r\n\r\n    /*\r\n    ** Remove GLQ liquidity from the staking contract for stakers rewards \r\n    */\r\n    function removeIncentive(uint256 glqAmount) public {\r\n        IERC20 glqToken = IERC20(_glqTokenAddress);\r\n        require(\r\n            msg.sender == _glqDeployerManager,\r\n            \"Only the Glq Deployer can remove incentive from the smart-contract\");\r\n        require(\r\n            glqToken.balanceOf(address(this)) >= glqAmount,\r\n            \"Insufficient funds from the deployer contract\");\r\n        require(\r\n            glqToken.transfer(msg.sender, glqAmount) == true,\r\n            \"Error transfer on the contract\"\r\n        );\r\n\r\n        _totalGlqIncentive -= glqAmount;\r\n    }\r\n\r\n\r\n    /*\r\n    ** Deposit GLQ in the staking contract to stake & earn\r\n    */\r\n    function depositGlq(uint256 glqAmount) public {\r\n        IERC20 glqToken = IERC20(_glqTokenAddress);\r\n        require(\r\n            glqToken.balanceOf(msg.sender) >= glqAmount,\r\n            \"Insufficient funds from the sender\");\r\n        require(\r\n           glqToken.transferFrom(msg.sender, address(this), glqAmount) == true,\r\n           \"Error transferFrom on the contract\"\r\n        );\r\n\r\n        uint256 index = _indexStaker[msg.sender];\r\n        _totalStaked += glqAmount;\r\n\r\n        if (index == 0) {\r\n            GlqStaker memory staker = GlqStaker(msg.sender, block.number, glqAmount, _stakersIndex, false);\r\n            _stakers.push(staker);\r\n            _indexStaker[msg.sender] = _stakersIndex;\r\n\r\n            // emit event of a new staker registered at current block position\r\n            emit NewStakerRegistered(msg.sender, block.number, glqAmount);\r\n            _stakersIndex = _stakersIndex.add(1);\r\n        }\r\n        else {\r\n            // claim rewards before adding new staking amount\r\n            if (_stakers[index-1].amount > 0) {\r\n                claimGlq();\r\n            }\r\n            _stakers[index-1].amount += glqAmount;\r\n        }\r\n    }\r\n\r\n    function removeStaker(GlqStaker storage staker) private {\r\n        uint256 currentIndex = _indexStaker[staker.wallet]-1;\r\n        _indexStaker[staker.wallet] = 0;\r\n        for (uint256 i= currentIndex ; i < _stakers.length-1 ; i++) {\r\n            _stakers[i] = _stakers[i+1];\r\n            _stakers[i].index_at = _stakers[i].index_at.sub(1);\r\n            _indexStaker[_stakers[i].wallet] = _stakers[i].index_at;\r\n        }\r\n        _stakers.pop();\r\n\r\n        // Remove the staker and decrease stakers index\r\n        _stakersIndex = _stakersIndex.sub(1);\r\n        if (_stakersIndex == 0) { _stakersIndex = 1; }\r\n    }\r\n\r\n    /*\r\n    ** Emergency withdraw enabled by GLQ team in an emergency case\r\n    */\r\n    function emergencyWithdraw() public {\r\n        require(\r\n            _emergencyWithdraw == true,\r\n            \"The emergency withdraw feature is not enabled\"\r\n        );\r\n        uint256 index = _indexStaker[msg.sender];\r\n        require (index > 0, \"Invalid staking index\");\r\n        GlqStaker storage staker = _stakers[index - 1];\r\n        IERC20 glqToken = IERC20(_glqTokenAddress);\r\n\r\n        require(\r\n            staker.amount > 0,\r\n         \"Not funds deposited in the staking contract\");\r\n\r\n        require(\r\n            glqToken.transfer(msg.sender, staker.amount) == true,\r\n            \"Error transfer on the contract\"\r\n        );\r\n    }\r\n\r\n    /*\r\n    ** Withdraw Glq from the staking contract (reduce the tier position)\r\n    */\r\n    function withdrawGlq() public {\r\n        uint256 index = _indexStaker[msg.sender];\r\n        require (index > 0, \"Invalid staking index\");\r\n        GlqStaker storage staker = _stakers[index - 1];\r\n        IERC20 glqToken = IERC20(_glqTokenAddress);\r\n        require(\r\n            staker.amount > 0,\r\n         \"Not funds deposited in the staking contract\");\r\n    \r\n        //auto claim when withdraw\r\n        claimGlq();\r\n\r\n        _totalStaked -= staker.amount;\r\n        require(\r\n            glqToken.balanceOf(address(this)) >= staker.amount,\r\n            \"Insufficient funds from the deployer contract\");\r\n        require(\r\n            glqToken.transfer(msg.sender, staker.amount) == true,\r\n            \"Error transfer on the contract\"\r\n        );\r\n        staker.amount = 0;\r\n        \r\n        if (staker.already_withdrawn) {\r\n            removeStaker(staker);\r\n        } else {\r\n            staker.already_withdrawn = true;\r\n        }\r\n    }\r\n\r\n    function percent(uint256 numerator, uint256 denominator, uint256 precision) private pure returns(uint256) {\r\n        uint256 _numerator  = numerator * 10 ** (precision+1);\r\n        // with rounding of last digit\r\n        uint256 _quotient =  ((_numerator / denominator) + 5) / 10;\r\n        return ( _quotient);\r\n    }\r\n\r\n    /*\r\n    ** Claim waiting rewards from the staking contract\r\n    */\r\n    function claimGlq() public returns(uint256) {\r\n        uint256 index = _indexStaker[msg.sender];\r\n        require (index > 0, \"Invalid staking index\");\r\n        GlqStaker storage staker = _stakers[index - 1];\r\n        uint256 glqToClaim = getGlqToClaim(msg.sender);\r\n        IERC20 glqToken = IERC20(_glqTokenAddress);\r\n\r\n        require(\r\n            glqToClaim > 0,\r\n            \"No rewards to claim.\"\r\n        );\r\n        require(\r\n            glqToken.balanceOf(address(this)) > glqToClaim,\r\n            \"Not enough funds in the staking program to claim rewards\"\r\n        );\r\n\r\n        staker.block_number = block.number;\r\n\r\n        require(\r\n            glqToken.transfer(msg.sender, glqToClaim) == true,\r\n            \"Error transfer on the contract\"\r\n        );\r\n        return (glqToClaim);\r\n    }\r\n\r\n    /* Setter - Read & Modifications */\r\n\r\n}",
  "sourcePath": "E:/eth/graphlinq/GraphLinq.Engine/GraphLinq.StakingContract/contracts/GlqStakingContract.sol",
  "compiler": {
    "name": "solc",
    "version": "0.8.0+commit.c7dfd78e.Emscripten.clang"
  },
  "schemaVersion": "3.4.0",
  "updatedAt": "2021-05-29T16:52:18.523Z",
  "networkType": "ethereum",
  "devdoc": {
    "kind": "dev",
    "methods": {},
    "version": 1
  },
  "userdoc": {
    "kind": "user",
    "methods": {},
    "version": 1
  }
}