{
  "contractName": "GraphLinqPrivateSale",
  "abi": [
    {
      "inputs": [
        {
          "internalType": "address",
          "name": "graphLinqTokenAddr",
          "type": "address"
        },
        {
          "internalType": "uint256",
          "name": "glqPereth",
          "type": "uint256"
        },
        {
          "internalType": "uint256",
          "name": "maxethPerWallet",
          "type": "uint256"
        }
      ],
      "stateMutability": "nonpayable",
      "type": "constructor"
    },
    {
      "anonymous": false,
      "inputs": [
        {
          "indexed": false,
          "internalType": "uint256",
          "name": "srcAmount",
          "type": "uint256"
        },
        {
          "indexed": false,
          "internalType": "uint256",
          "name": "glqPereth",
          "type": "uint256"
        },
        {
          "indexed": false,
          "internalType": "uint256",
          "name": "totalGlq",
          "type": "uint256"
        }
      ],
      "name": "NewAmountPresale",
      "type": "event"
    },
    {
      "inputs": [],
      "name": "_claim",
      "outputs": [
        {
          "internalType": "bool",
          "name": "",
          "type": "bool"
        }
      ],
      "stateMutability": "view",
      "type": "function"
    },
    {
      "inputs": [],
      "name": "_ethSolded",
      "outputs": [
        {
          "internalType": "uint256",
          "name": "",
          "type": "uint256"
        }
      ],
      "stateMutability": "view",
      "type": "function"
    },
    {
      "inputs": [],
      "name": "_glqPerEth",
      "outputs": [
        {
          "internalType": "uint256",
          "name": "",
          "type": "uint256"
        }
      ],
      "stateMutability": "view",
      "type": "function"
    },
    {
      "inputs": [],
      "name": "_glqSolded",
      "outputs": [
        {
          "internalType": "uint256",
          "name": "",
          "type": "uint256"
        }
      ],
      "stateMutability": "view",
      "type": "function"
    },
    {
      "inputs": [],
      "name": "_maxethPerWallet",
      "outputs": [
        {
          "internalType": "uint256",
          "name": "",
          "type": "uint256"
        }
      ],
      "stateMutability": "view",
      "type": "function"
    },
    {
      "inputs": [],
      "name": "_paused",
      "outputs": [
        {
          "internalType": "bool",
          "name": "",
          "type": "bool"
        }
      ],
      "stateMutability": "view",
      "type": "function"
    },
    {
      "stateMutability": "payable",
      "type": "receive"
    },
    {
      "inputs": [
        {
          "internalType": "bool",
          "name": "value",
          "type": "bool"
        }
      ],
      "name": "setPaused",
      "outputs": [],
      "stateMutability": "payable",
      "type": "function"
    },
    {
      "inputs": [
        {
          "internalType": "bool",
          "name": "value",
          "type": "bool"
        }
      ],
      "name": "setClaim",
      "outputs": [],
      "stateMutability": "payable",
      "type": "function"
    },
    {
      "inputs": [],
      "name": "claimGlq",
      "outputs": [],
      "stateMutability": "nonpayable",
      "type": "function"
    },
    {
      "inputs": [],
      "name": "getTotalRaisedEth",
      "outputs": [
        {
          "internalType": "uint256",
          "name": "",
          "type": "uint256"
        }
      ],
      "stateMutability": "view",
      "type": "function"
    },
    {
      "inputs": [],
      "name": "getTotalRaisedGlq",
      "outputs": [
        {
          "internalType": "uint256",
          "name": "",
          "type": "uint256"
        }
      ],
      "stateMutability": "view",
      "type": "function"
    },
    {
      "inputs": [
        {
          "internalType": "address",
          "name": "addr",
          "type": "address"
        }
      ],
      "name": "getAddressInvestment",
      "outputs": [
        {
          "internalType": "uint256",
          "name": "",
          "type": "uint256"
        }
      ],
      "stateMutability": "view",
      "type": "function"
    },
    {
      "inputs": [],
      "name": "withdraw",
      "outputs": [],
      "stateMutability": "payable",
      "type": "function"
    }
  ],
  "bytecode": "0x60806040526000600760006101000a81548160ff0219169083151502179055506000600760016101000a81548160ff02191690831515021790555034801561004657600080fd5b506040516112a63803806112a68339818101604052606081101561006957600080fd5b81019080805190602001909291908051906020019092919080519060200190929190505050336000806101000a81548173ffffffffffffffffffffffffffffffffffffffff021916908373ffffffffffffffffffffffffffffffffffffffff16021790555060006003819055508160058190555082600160006101000a81548173ffffffffffffffffffffffffffffffffffffffff021916908373ffffffffffffffffffffffffffffffffffffffff1602179055508060068190555050505061116f806101376000396000f3fe6080604052600436106100c65760003560e01c8063340c33521161007f5780634a000b94116100595780634a000b941461037257806365eeae311461039d5780639c58e476146103c8578063cdea1e18146103f357610211565b8063340c3352146103125780633a0323fa1461033d5780633ccfd60b1461036857610211565b806316c38b3c1461021657806316c61ccc14610246578063211418ab14610273578063220e0726146102a35780632804b175146102ba57806333efe953146102e557610211565b366102115760001515600760009054906101000a900460ff16151514610154576040517f08c379a00000000000000000000000000000000000000000000000000000000081526004018080602001828103825260118152602001807f50726573616c652069732070617573656400000000000000000000000000000081525060200191505060405180910390fd5b60006101a834600260003373ffffffffffffffffffffffffffffffffffffffff1673ffffffffffffffffffffffffffffffffffffffff1681526020019081526020016000205461045890919063ffffffff16565b9050600654811115610205576040517f08c379a000000000000000000000000000000000000000000000000000000000815260040180806020018281038252603d815260200180611095603d913960400191505060405180910390fd5b61020e346104e0565b50005b600080fd5b6102446004803603602081101561022c57600080fd5b810190808035151590602001909291905050506106fd565b005b34801561025257600080fd5b5061025b6107be565b60405180821515815260200191505060405180910390f35b6102a16004803603602081101561028957600080fd5b810190808035151590602001909291905050506107d1565b005b3480156102af57600080fd5b506102b8610892565b005b3480156102c657600080fd5b506102cf610bf7565b6040518082815260200191505060405180910390f35b3480156102f157600080fd5b506102fa610bfd565b60405180821515815260200191505060405180910390f35b34801561031e57600080fd5b50610327610c10565b6040518082815260200191505060405180910390f35b34801561034957600080fd5b50610352610c16565b6040518082815260200191505060405180910390f35b610370610c20565b005b34801561037e57600080fd5b50610387610e9f565b6040518082815260200191505060405180910390f35b3480156103a957600080fd5b506103b2610ea5565b6040518082815260200191505060405180910390f35b3480156103d457600080fd5b506103dd610eab565b6040518082815260200191505060405180910390f35b3480156103ff57600080fd5b506104426004803603602081101561041657600080fd5b81019080803573ffffffffffffffffffffffffffffffffffffffff169060200190929190505050610eb5565b6040518082815260200191505060405180910390f35b6000808284019050838110156104d6576040517f08c379a000000000000000000000000000000000000000000000000000000000815260040180806020018281038252601b8152602001807f536166654d6174683a206164646974696f6e206f766572666c6f77000000000081525060200191505060405180910390fd5b8091505092915050565b6000610511670de0b6b3a764000061050360055485610efe90919063ffffffff16565b610f8490919063ffffffff16565b90507fde7692daec986ed4ea33342d88cfb8b08beb228c2fa89209120c808fb1ec5eda826005548360405180848152602001838152602001828152602001935050505060405180910390a16105716004548261045890919063ffffffff16565b600160009054906101000a900473ffffffffffffffffffffffffffffffffffffffff1673ffffffffffffffffffffffffffffffffffffffff166370a08231306040518263ffffffff1660e01b8152600401808273ffffffffffffffffffffffffffffffffffffffff16815260200191505060206040518083038186803b1580156105fa57600080fd5b505afa15801561060e573d6000803e3d6000fd5b505050506040513d602081101561062457600080fd5b8101908080519060200190929190505050101561068c576040517f08c379a00000000000000000000000000000000000000000000000000000000081526004018080602001828103825260268152602001806110f36026913960400191505060405180910390fd5b816003600082825401925050819055508060046000828254019250508190555081600260003373ffffffffffffffffffffffffffffffffffffffff1673ffffffffffffffffffffffffffffffffffffffff168152602001908152602001600020600082825401925050819055505050565b60008054906101000a900473ffffffffffffffffffffffffffffffffffffffff1673ffffffffffffffffffffffffffffffffffffffff163373ffffffffffffffffffffffffffffffffffffffff16146107a1576040517f08c379a00000000000000000000000000000000000000000000000000000000081526004018080602001828103825260218152602001806110d26021913960400191505060405180910390fd5b80600760006101000a81548160ff02191690831515021790555050565b600760009054906101000a900460ff1681565b60008054906101000a900473ffffffffffffffffffffffffffffffffffffffff1673ffffffffffffffffffffffffffffffffffffffff163373ffffffffffffffffffffffffffffffffffffffff1614610875576040517f08c379a00000000000000000000000000000000000000000000000000000000081526004018080602001828103825260218152602001806110d26021913960400191505060405180910390fd5b80600760016101000a81548160ff02191690831515021790555050565b60011515600760019054906101000a900460ff1615151461091b576040517f08c379a000000000000000000000000000000000000000000000000000000000815260040180806020018281038252601b8152602001807f596f752063616e7420636c61696d20796f757220474c5120796574000000000081525060200191505060405180910390fd5b6000600260003373ffffffffffffffffffffffffffffffffffffffff1673ffffffffffffffffffffffffffffffffffffffff1681526020019081526020016000205490506000610990670de0b6b3a764000061098260055485610efe90919063ffffffff16565b610f8490919063ffffffff16565b905060008111610a08576040517f08c379a000000000000000000000000000000000000000000000000000000000815260040180806020018281038252601e8152602001807f596f7520646f6e74206861766520616e7920474c5120746f20636c61696d000081525060200191505060405180910390fd5b80600160009054906101000a900473ffffffffffffffffffffffffffffffffffffffff1673ffffffffffffffffffffffffffffffffffffffff166370a08231306040518263ffffffff1660e01b8152600401808273ffffffffffffffffffffffffffffffffffffffff16815260200191505060206040518083038186803b158015610a9257600080fd5b505afa158015610aa6573d6000803e3d6000fd5b505050506040513d6020811015610abc57600080fd5b81019080805190602001909291905050501015610b24576040517f08c379a00000000000000000000000000000000000000000000000000000000081526004018080602001828103825260268152602001806110f36026913960400191505060405180910390fd5b600160009054906101000a900473ffffffffffffffffffffffffffffffffffffffff1673ffffffffffffffffffffffffffffffffffffffff1663a9059cbb33836040518363ffffffff1660e01b8152600401808373ffffffffffffffffffffffffffffffffffffffff16815260200182815260200192505050602060405180830381600087803b158015610bb757600080fd5b505af1158015610bcb573d6000803e3d6000fd5b505050506040513d6020811015610be157600080fd5b8101908080519060200190929190505050505050565b60055481565b600760019054906101000a900460ff1681565b60035481565b6000600354905090565b60008054906101000a900473ffffffffffffffffffffffffffffffffffffffff1673ffffffffffffffffffffffffffffffffffffffff163373ffffffffffffffffffffffffffffffffffffffff1614610cc4576040517f08c379a00000000000000000000000000000000000000000000000000000000081526004018080602001828103825260218152602001806110d26021913960400191505060405180910390fd5b3373ffffffffffffffffffffffffffffffffffffffff166108fc479081150290604051600060405180830381858888f19350505050158015610d0a573d6000803e3d6000fd5b50600160009054906101000a900473ffffffffffffffffffffffffffffffffffffffff1673ffffffffffffffffffffffffffffffffffffffff1663a9059cbb33600160009054906101000a900473ffffffffffffffffffffffffffffffffffffffff1673ffffffffffffffffffffffffffffffffffffffff166370a08231306040518263ffffffff1660e01b8152600401808273ffffffffffffffffffffffffffffffffffffffff16815260200191505060206040518083038186803b158015610dd357600080fd5b505afa158015610de7573d6000803e3d6000fd5b505050506040513d6020811015610dfd57600080fd5b81019080805190602001909291905050506040518363ffffffff1660e01b8152600401808373ffffffffffffffffffffffffffffffffffffffff16815260200182815260200192505050602060405180830381600087803b158015610e6157600080fd5b505af1158015610e75573d6000803e3d6000fd5b505050506040513d6020811015610e8b57600080fd5b810190808051906020019092919050505050565b60045481565b60065481565b6000600454905090565b6000600260008373ffffffffffffffffffffffffffffffffffffffff1673ffffffffffffffffffffffffffffffffffffffff168152602001908152602001600020549050919050565b600080831415610f115760009050610f7e565b6000828402905082848281610f2257fe5b0414610f79576040517f08c379a00000000000000000000000000000000000000000000000000000000081526004018080602001828103825260218152602001806111196021913960400191505060405180910390fd5b809150505b92915050565b6000610fc683836040518060400160405280601a81526020017f536166654d6174683a206469766973696f6e206279207a65726f000000000000815250610fce565b905092915050565b6000808311829061107a576040517f08c379a00000000000000000000000000000000000000000000000000000000081526004018080602001828103825283818151815260200191508051906020019080838360005b8381101561103f578082015181840152602081019050611024565b50505050905090810190601f16801561106c5780820380516001836020036101000a031916815260200191505b509250505060405180910390fd5b50600083858161108657fe5b04905080915050939250505056fe596f7520646570617373656420746865206c696d6974206f66206d617820657468207065722077616c6c657420666f72207468652070726573616c652e4f6e6c7920746865206f776e65722063616e20646f207468697320616374696f6e4e6f20474c5120616d6f756e74207265717569726564206f6e2074686520636f6e7472616374536166654d6174683a206d756c7469706c69636174696f6e206f766572666c6f77a2646970667358221220acc874be0345642a6f5a67ad2a0eb8467e4512cce84189ce76167768a69c890c64736f6c63430007040033",
  "immutableReferences": {},
  "source": "// SPDX-License-Identifier: UNLICENSED\r\n\r\npragma solidity ^0.7.0;\r\n\r\nimport \"./libs/maths/SafeMath.sol\";\r\nimport \"./interfaces/IExtendedERC20.sol\";\r\n\r\ncontract GraphLinqPrivateSale {\r\n    using SafeMath for uint256;\r\n\r\n\r\n    address private                         _owner;\r\n    IExtendedERC20 private                  _glqToken;\r\n    mapping(address => uint256) private     _wallets_investment;\r\n\r\n    uint256 public                          _ethSolded;\r\n    uint256 public                          _glqSolded;\r\n    uint256 public                          _glqPerEth;\r\n    uint256 public                          _maxethPerWallet;\r\n    bool public                             _paused = false;\r\n    bool public                             _claim = false;\r\n\r\n    event NewAmountPresale (\r\n        uint256 srcAmount,\r\n        uint256 glqPereth,\r\n        uint256 totalGlq\r\n    );\r\n\r\n    /*\r\n    ** Description: constructing the contract basic informations, containing the GLQ token addr, the ratio price eth:GLQ\r\n    ** and the max authorized eth amount per wallet\r\n    */\r\n    constructor(address graphLinqTokenAddr, uint256 glqPereth, uint256 maxethPerWallet)\r\n    {\r\n        _owner = msg.sender;\r\n        _ethSolded = 0;\r\n        _glqPerEth = glqPereth;\r\n        _glqToken = IExtendedERC20(graphLinqTokenAddr);\r\n        _maxethPerWallet = maxethPerWallet;\r\n    }\r\n\r\n    /*\r\n    ** Description: Check that the transaction sender is the GLQ owner\r\n    */\r\n    modifier onlyOwner() {\r\n        require(msg.sender == _owner, \"Only the owner can do this action\");\r\n        _;\r\n    }\r\n\r\n    /*\r\n    ** Receive eth payment for the presale raise\r\n    */\r\n    receive() external payable {\r\n        require(_paused == false, \"Presale is paused\");\r\n        uint256 totalInvested = _wallets_investment[address(msg.sender)].add(msg.value);\r\n        require(totalInvested <= _maxethPerWallet, \"You depassed the limit of max eth per wallet for the presale.\");\r\n        _transfertGLQ(msg.value);\r\n    }\r\n\r\n    /*\r\n    ** Description: Set the presale in pause state (no more deposits are accepted once it's turned back)\r\n    */\r\n    function setPaused(bool value) public payable onlyOwner {\r\n        _paused = value;\r\n    }\r\n\r\n    /*\r\n    ** Description: Set the presale claim mode \r\n    */\r\n    function setClaim(bool value) public payable onlyOwner {\r\n        _claim = value;\r\n    }\r\n\r\n    /*\r\n    ** Description: Claim the GLQ once the presale is done\r\n    */\r\n    function claimGlq() public\r\n    {\r\n        require(_claim == true, \"You cant claim your GLQ yet\");\r\n        uint256 srcAmount =  _wallets_investment[address(msg.sender)];\r\n        uint256 glqAmount = (srcAmount.mul(_glqPerEth)).div(10 ** 18);\r\n        require(glqAmount > 0, \"You dont have any GLQ to claim\");\r\n         require(\r\n            _glqToken.balanceOf(address(this)) >= glqAmount,\r\n            \"No GLQ amount required on the contract\"\r\n        );\r\n        _glqToken.transfer(msg.sender, glqAmount);\r\n    }\r\n\r\n\r\n    /*\r\n    ** Description: Return the amount raised from the Presale (as ETH)\r\n    */\r\n    function getTotalRaisedEth() public view returns(uint256) {\r\n        return _ethSolded;\r\n    }\r\n\r\n        /*\r\n    ** Description: Return the amount raised from the Presale (as GLQ)\r\n    */\r\n    function getTotalRaisedGlq() public view returns(uint256) {\r\n        return _glqSolded;\r\n    }\r\n\r\n    /*\r\n    ** Description: Return the total amount invested from a specific address\r\n    */\r\n    function getAddressInvestment(address addr) public view returns(uint256) {\r\n        return  _wallets_investment[addr];\r\n    }\r\n\r\n    /*\r\n    ** Description: Transfer the specific GLQ amount to the payer address\r\n    */\r\n    function _transfertGLQ(uint256 _srcAmount) private {\r\n        uint256 glqAmount = (_srcAmount.mul(_glqPerEth)).div(10 ** 18);\r\n        emit NewAmountPresale(\r\n            _srcAmount,\r\n            _glqPerEth,\r\n            glqAmount\r\n        );\r\n\r\n        require(\r\n            _glqToken.balanceOf(address(this)) >= glqAmount.add(_glqSolded),\r\n            \"No GLQ amount required on the contract\"\r\n        );\r\n\r\n        _ethSolded += _srcAmount;\r\n        _glqSolded += glqAmount;\r\n        _wallets_investment[address(msg.sender)] += _srcAmount;\r\n    }\r\n\r\n    /*\r\n    ** Description: Authorize the contract owner to withdraw the raised funds from the presale\r\n    */\r\n    function withdraw() public payable onlyOwner {\r\n        msg.sender.transfer(address(this).balance);\r\n        _glqToken.transfer(msg.sender, _glqToken.balanceOf(address(this)));\r\n    }\r\n}",
  "sourcePath": "/mnt/f/eth/graphlinq/GraphLinq.Engine/NodeBlock.GraphLinqPrivateSaleContract/contracts/GraphLinqPrivateSale.sol",
  "compiler": {
    "name": "solc",
    "version": "0.7.4+commit.3f05b770.Emscripten.clang"
  },
  "schemaVersion": "3.3.3",
  "updatedAt": "2021-03-15T21:58:30.563Z",
  "devdoc": {
    "kind": "dev",
    "methods": {},
    "version": 1
  },
  "userdoc": {
    "kind": "user",
    "methods": {},
    "version": 1
  }
}