{
  "contractName": "GraphLinqDepositor",
  "abi": [
    {
      "inputs": [
        {
          "internalType": "address",
          "name": "engineManager",
          "type": "address"
        },
        {
          "internalType": "address",
          "name": "graphLinqContract",
          "type": "address"
        }
      ],
      "stateMutability": "nonpayable",
      "type": "constructor"
    },
    {
      "inputs": [
        {
          "internalType": "uint256",
          "name": "amount",
          "type": "uint256"
        }
      ],
      "name": "burnAmount",
      "outputs": [],
      "stateMutability": "nonpayable",
      "type": "function"
    },
    {
      "inputs": [
        {
          "internalType": "address",
          "name": "fromWallet",
          "type": "address"
        },
        {
          "internalType": "uint256",
          "name": "amount",
          "type": "uint256"
        }
      ],
      "name": "burnBalance",
      "outputs": [],
      "stateMutability": "nonpayable",
      "type": "function"
    },
    {
      "inputs": [
        {
          "internalType": "address",
          "name": "walletOwner",
          "type": "address"
        },
        {
          "internalType": "uint256",
          "name": "amount",
          "type": "uint256"
        },
        {
          "internalType": "uint256",
          "name": "removeFees",
          "type": "uint256"
        }
      ],
      "name": "withdrawWalletBalance",
      "outputs": [],
      "stateMutability": "nonpayable",
      "type": "function"
    },
    {
      "inputs": [
        {
          "internalType": "uint256",
          "name": "amount",
          "type": "uint256"
        }
      ],
      "name": "addBalance",
      "outputs": [],
      "stateMutability": "nonpayable",
      "type": "function"
    },
    {
      "inputs": [
        {
          "internalType": "address",
          "name": "from",
          "type": "address"
        }
      ],
      "name": "getBalance",
      "outputs": [
        {
          "internalType": "uint256",
          "name": "",
          "type": "uint256"
        }
      ],
      "stateMutability": "view",
      "type": "function",
      "constant": true
    }
  ],
  "bytecode": "0x608060405234801561001057600080fd5b506040516111b73803806111b78339818101604052604081101561003357600080fd5b81019080805190602001909291908051906020019092919050505081600260006101000a81548173ffffffffffffffffffffffffffffffffffffffff021916908373ffffffffffffffffffffffffffffffffffffffff160217905550806000806101000a81548173ffffffffffffffffffffffffffffffffffffffff021916908373ffffffffffffffffffffffffffffffffffffffff16021790555050506110d7806100e06000396000f3fe608060405234801561001057600080fd5b50600436106100575760003560e01c80634ba94ec91461005c5780636fafdf83146100aa578063817a6313146100d8578063d91921ed14610130578063f8b2cb4f1461015e575b600080fd5b6100a86004803603604081101561007257600080fd5b81019080803573ffffffffffffffffffffffffffffffffffffffff169060200190929190803590602001909291905050506101b6565b005b6100d6600480360360208110156100c057600080fd5b81019080803590602001909291905050506104d1565b005b61012e600480360360608110156100ee57600080fd5b81019080803573ffffffffffffffffffffffffffffffffffffffff1690602001909291908035906020019092919080359060200190929190505050610706565b005b61015c6004803603602081101561014657600080fd5b8101908080359060200190929190505050610b7a565b005b6101a06004803603602081101561017457600080fd5b81019080803573ffffffffffffffffffffffffffffffffffffffff169060200190929190505050610e11565b6040518082815260200191505060405180910390f35b60008060009054906101000a900473ffffffffffffffffffffffffffffffffffffffff169050600260009054906101000a900473ffffffffffffffffffffffffffffffffffffffff1673ffffffffffffffffffffffffffffffffffffffff163373ffffffffffffffffffffffffffffffffffffffff1614610282576040517f08c379a000000000000000000000000000000000000000000000000000000000815260040180806020018281038252605a815260200180610f5f605a913960600191505060405180910390fd5b81600160008573ffffffffffffffffffffffffffffffffffffffff1673ffffffffffffffffffffffffffffffffffffffff16815260200190815260200160002054101561031a576040517f08c379a0000000000000000000000000000000000000000000000000000000008152600401808060200182810382526049815260200180610e5b6049913960600191505060405180910390fd5b818173ffffffffffffffffffffffffffffffffffffffff166370a08231306040518263ffffffff1660e01b8152600401808273ffffffffffffffffffffffffffffffffffffffff16815260200191505060206040518083038186803b15801561038257600080fd5b505afa158015610396573d6000803e3d6000fd5b505050506040513d60208110156103ac57600080fd5b81019080805190602001909291905050501015610414576040517f08c379a000000000000000000000000000000000000000000000000000000000815260040180806020018281038252604f815260200180610fb9604f913960600191505060405180910390fd5b8073ffffffffffffffffffffffffffffffffffffffff1663843d7d72836040518263ffffffff1660e01b815260040180828152602001915050600060405180830381600087803b15801561046757600080fd5b505af115801561047b573d6000803e3d6000fd5b5050505081600160008573ffffffffffffffffffffffffffffffffffffffff1673ffffffffffffffffffffffffffffffffffffffff16815260200190815260200160002060008282540392505081905550505050565b60008060009054906101000a900473ffffffffffffffffffffffffffffffffffffffff169050600260009054906101000a900473ffffffffffffffffffffffffffffffffffffffff1673ffffffffffffffffffffffffffffffffffffffff163373ffffffffffffffffffffffffffffffffffffffff161461059d576040517f08c379a000000000000000000000000000000000000000000000000000000000815260040180806020018281038252605a815260200180610f5f605a913960600191505060405180910390fd5b818173ffffffffffffffffffffffffffffffffffffffff166370a08231306040518263ffffffff1660e01b8152600401808273ffffffffffffffffffffffffffffffffffffffff16815260200191505060206040518083038186803b15801561060557600080fd5b505afa158015610619573d6000803e3d6000fd5b505050506040513d602081101561062f57600080fd5b81019080805190602001909291905050501015610697576040517f08c379a000000000000000000000000000000000000000000000000000000000815260040180806020018281038252604f815260200180610fb9604f913960600191505060405180910390fd5b8073ffffffffffffffffffffffffffffffffffffffff1663843d7d72836040518263ffffffff1660e01b815260040180828152602001915050600060405180830381600087803b1580156106ea57600080fd5b505af11580156106fe573d6000803e3d6000fd5b505050505050565b60008060009054906101000a900473ffffffffffffffffffffffffffffffffffffffff169050600260009054906101000a900473ffffffffffffffffffffffffffffffffffffffff1673ffffffffffffffffffffffffffffffffffffffff163373ffffffffffffffffffffffffffffffffffffffff16146107d2576040517f08c379a00000000000000000000000000000000000000000000000000000000081526004018080602001828103825260518152602001806110086051913960600191505060405180910390fd5b82600160008673ffffffffffffffffffffffffffffffffffffffff1673ffffffffffffffffffffffffffffffffffffffff16815260200190815260200160002054101561086a576040517f08c379a0000000000000000000000000000000000000000000000000000000008152600401808060200182810382526049815260200180610e5b6049913960600191505060405180910390fd5b828173ffffffffffffffffffffffffffffffffffffffff166370a08231306040518263ffffffff1660e01b8152600401808273ffffffffffffffffffffffffffffffffffffffff16815260200191505060206040518083038186803b1580156108d257600080fd5b505afa1580156108e6573d6000803e3d6000fd5b505050506040513d60208110156108fc57600080fd5b81019080805190602001909291905050501015610964576040517f08c379a000000000000000000000000000000000000000000000000000000000815260040180806020018281038252604d815260200180610eec604d913960600191505060405180910390fd5b8073ffffffffffffffffffffffffffffffffffffffff1663a9059cbb85856040518363ffffffff1660e01b8152600401808373ffffffffffffffffffffffffffffffffffffffff16815260200182815260200192505050602060405180830381600087803b1580156109d557600080fd5b505af11580156109e9573d6000803e3d6000fd5b505050506040513d60208110156109ff57600080fd5b8101908080519060200190929190505050610a65576040517f08c379a0000000000000000000000000000000000000000000000000000000008152600401808060200182810382526048815260200180610ea46048913960600191505060405180910390fd5b82600160008673ffffffffffffffffffffffffffffffffffffffff1673ffffffffffffffffffffffffffffffffffffffff168152602001908152602001600020600082825403925050819055506000821115610b74578073ffffffffffffffffffffffffffffffffffffffff1663843d7d72836040518263ffffffff1660e01b815260040180828152602001915050600060405180830381600087803b158015610b0e57600080fd5b505af1158015610b22573d6000803e3d6000fd5b5050505081600160008673ffffffffffffffffffffffffffffffffffffffff1673ffffffffffffffffffffffffffffffffffffffff168152602001908152602001600020600082825403925050819055505b50505050565b60008060009054906101000a900473ffffffffffffffffffffffffffffffffffffffff169050818173ffffffffffffffffffffffffffffffffffffffff166370a08231336040518263ffffffff1660e01b8152600401808273ffffffffffffffffffffffffffffffffffffffff16815260200191505060206040518083038186803b158015610c0857600080fd5b505afa158015610c1c573d6000803e3d6000fd5b505050506040513d6020811015610c3257600080fd5b81019080805190602001909291905050501015610c9a576040517f08c379a0000000000000000000000000000000000000000000000000000000008152600401808060200182810382526026815260200180610f396026913960400191505060405180910390fd5b600115158173ffffffffffffffffffffffffffffffffffffffff166323b872dd3330866040518463ffffffff1660e01b8152600401808473ffffffffffffffffffffffffffffffffffffffff1681526020018373ffffffffffffffffffffffffffffffffffffffff1681526020018281526020019350505050602060405180830381600087803b158015610d2d57600080fd5b505af1158015610d41573d6000803e3d6000fd5b505050506040513d6020811015610d5757600080fd5b8101908080519060200190929190505050151514610dc0576040517f08c379a00000000000000000000000000000000000000000000000000000000081526004018080602001828103825260498152602001806110596049913960600191505060405180910390fd5b81600160003373ffffffffffffffffffffffffffffffffffffffff1673ffffffffffffffffffffffffffffffffffffffff168152602001908152602001600020600082825401925050819055505050565b6000600160008373ffffffffffffffffffffffffffffffffffffffff1673ffffffffffffffffffffffffffffffffffffffff16815260200190815260200160002054905091905056fe496e76616c696420616d6f756e7420746f2077697468647261772c20616d6f756e7420697320686967686572207468656e2063757272656e742077616c6c65742062616c616e63652e4572726f72207472616e73666572696e672062616c616e6365206261636b20746f20686973206f776e65722066726f6d20746865206465706f7369746f7220636f6e74726163742e496e76616c69642066756e6420696e20746865206465706f7369746f7220636f6e74726163742c2063616e74207265616368207468652077616c6c65742062616c616e636520616d6f756e742e496e76616c69642062616c616e636520746f2061646420696e20796f757220637265646974734f6e6c79207468652047726170684c696e7120656e67696e65206d616e616765722063616e206465636964652077686963682066756e64732073686f756c64206265206275726e656420666f7220677261706820636f7374732e496e76616c69642066756e6420696e20746865206465706f7369746f7220636f6e74726163742c2063616e742072656163682074686520636f6e74726163742062616c616e636520616d6f756e742e4f6e6c79207468652047726170684c696e7120656e67696e65206d616e616765722063616e206465636964652077686963682066756e64732061726520776974686472617761626c65206f72206e6f742e4572726f72207768696c6520747279696e6720746f206164642063726564697420746f20796f75722062616c616e63652c20706c6561736520636865636b20616c6c6f77616e63652ea2646970667358221220315901dfdab5022f5ca3d86af9debde4912d2368132f8b7a48e986e63df2348264736f6c63430007040033",
  "immutableReferences": {},
  "source": "// SPDX-License-Identifier: UNLICENSED\r\n\r\npragma solidity ^0.7.0;\r\n\r\nimport \"./interfaces/IERC20.sol\";\r\n\r\ncontract GraphLinqDepositor {\r\n    address private _graphLinkContract;\r\n    mapping (address => uint256) _balances;\r\n    address private _engineManager;\r\n\r\n    constructor(address engineManager, address graphLinqContract) {\r\n        _engineManager = engineManager;\r\n        _graphLinkContract = graphLinqContract;\r\n    }\r\n\r\n    function burnAmount(uint256 amount) public {\r\n        IERC20 graphLinqToken = IERC20(address(_graphLinkContract));\r\n         require (\r\n            msg.sender == _engineManager,\r\n            \"Only the GraphLinq engine manager can decide which funds should be burned for graph costs.\"\r\n        );\r\n        require(\r\n            graphLinqToken.balanceOf(address(this)) >= amount, \r\n            \"Invalid fund in the depositor contract, cant reach the contract balance amount.\"\r\n        );\r\n        graphLinqToken.burnFuel(amount);\r\n    }\r\n\r\n    function burnBalance(address fromWallet, uint256 amount) public {\r\n        IERC20 graphLinqToken = IERC20(address(_graphLinkContract));\r\n        require (\r\n            msg.sender == _engineManager,\r\n            \"Only the GraphLinq engine manager can decide which funds should be burned for graph costs.\"\r\n        );\r\n\r\n        require (_balances[fromWallet] >= amount,\r\n            \"Invalid amount to withdraw, amount is higher then current wallet balance.\"\r\n        );\r\n\r\n        require(\r\n            graphLinqToken.balanceOf(address(this)) >= amount, \r\n            \"Invalid fund in the depositor contract, cant reach the contract balance amount.\"\r\n        );\r\n\r\n        graphLinqToken.burnFuel(amount);\r\n        _balances[fromWallet] -= amount;\r\n    }\r\n\r\n    function withdrawWalletBalance(address walletOwner, uint256 amount,\r\n     uint256 removeFees) public {\r\n        IERC20 graphLinqToken = IERC20(address(_graphLinkContract));\r\n\r\n        require (\r\n            msg.sender == _engineManager,\r\n            \"Only the GraphLinq engine manager can decide which funds are withdrawable or not.\"\r\n        );\r\n\r\n        require (_balances[walletOwner] >= amount,\r\n            \"Invalid amount to withdraw, amount is higher then current wallet balance.\"\r\n        );\r\n\r\n        require(\r\n            graphLinqToken.balanceOf(address(this)) >= amount, \r\n            \"Invalid fund in the depositor contract, cant reach the wallet balance amount.\"\r\n        );\r\n\r\n        require(\r\n            graphLinqToken.transfer(walletOwner, amount),\r\n            \"Error transfering balance back to his owner from the depositor contract.\"\r\n        );\r\n        _balances[walletOwner] -= amount;\r\n        \r\n        // in case the wallet runned some graph on the engine and have fees to pay\r\n        if (removeFees > 0) {\r\n            graphLinqToken.burnFuel(removeFees);\r\n            _balances[walletOwner] -= removeFees;\r\n        }\r\n    }\r\n\r\n    function addBalance(uint256 amount) public {\r\n         IERC20 graphLinqToken = IERC20(address(_graphLinkContract));\r\n\r\n         require(\r\n             graphLinqToken.balanceOf(msg.sender) >= amount,\r\n             \"Invalid balance to add in your credits\"\r\n         );\r\n\r\n         require(\r\n             graphLinqToken.transferFrom(msg.sender, address(this), amount) == true,\r\n             \"Error while trying to add credit to your balance, please check allowance.\"\r\n         );\r\n\r\n         _balances[msg.sender] += amount;\r\n    }\r\n\r\n    function getBalance(address from) public view returns(uint256) {\r\n        return _balances[from];\r\n    }\r\n}",
  "sourcePath": "/mnt/f/eth/graphlinq/GraphLinq.Engine/NodeBlock.EngineDepositorContract/contracts/GraphLinqDepositor.sol",
  "compiler": {
    "name": "solc",
    "version": "0.7.4+commit.3f05b770.Emscripten.clang"
  },
  "schemaVersion": "3.3.3",
  "updatedAt": "2021-02-24T15:09:05.507Z",
  "networkType": "ethereum",
  "devdoc": {
    "kind": "dev",
    "methods": {},
    "version": 1
  },
  "userdoc": {
    "kind": "user",
    "methods": {},
    "version": 1
  }
}